:100000000C9446000C9465000C9465000C946500FB
:100010000C9465000C9465000C9465000C946500CC
:100020000C9465000C9465000C9465000C946500BC
:100030000C948A000C9465000C9465000C94650087
:100040000C9465000C9465000C9465000C9465009C
:100050000C9465000C9465000C9465000C9465008C
:100060000C9465000C9465000C9465000C9465007C
:100070000C9465000C9465000C9465000C9465006C
:100080000C9465000C9465000C94650011241FBE4F
:10009000CFEFD0E1DEBFCDBF12E0A0E0B1E0EEE3F4
:1000A000F1E100E00BBF02C007900D92A630B1074E
:1000B000D9F712E0A6E0B2E001C01D92A635B10763
:1000C000E1F70E9439040C949D080C940000F89408
:1000D0001DBC1CBC78941FBC1EBC8FB580648FBD3A
:1000E0008FB58C7F8FBD8EB588608EBD8EB58160DB
:1000F0008EBD80E187BFF89488EC90E09BBD8ABDFF
:1001000010922E0210922D021092300210922F02A5
:10011000789408951F920F920FB60F9211242F9387
:100120008F939F93F894C49880912D0290912E0202
:100130008F5F9F4F71F410922E0210922D028091CA
:100140002F029091300201969093300280932F02FB
:1001500009C080912D0290912E02019690932E025B
:1001600080932D027894C49A9F918F912F910F9034
:100170000FBE0F901F90189520912F0230913002E2
:1001800020912D0230912E026CE070E00E943F0819
:10019000AB0180912F029091300280912D029091BD
:1001A0002E02821B930B841795079CF308951092DF
:1001B00090008AE189B984E08093950088E18AB94A
:1001C00008951092980088E08093990088E18093C8
:1001D0009A000895982F80919B0085FFFCCF909303
:1001E0009C0008955D9BFECF8CB90895282F8091C7
:1001F0009B0085FFFCCF90939C0080919B0085FF26
:10020000FCCF20939C00089587E087BB8EE58DB9D5
:1002100008958FB9779BFECF089518BA8FB9779B51
:10022000FECF81E088BB8FB1089518BA8F738FB964
:10023000779BFECF1FB8779BFECF80E090E001C098
:10024000019689319105E4F39093070280930602A9
:100250001FB8779BFECF3FB11FB8779BFECF2FB162
:1002600081E088BB932F80E030E0282B392B220FD0
:10027000331F220F331FC901089580912D029091E1
:100280002E0280930D0280912D0290912E02909368
:100290000C0280912F029091300280930B0280918A
:1002A0002F029091300290930A0208955F9BFECF37
:1002B0008CB10895CF93DF9320913402DC01AB5CC5
:1002C000BD4FC0E0D0E040E050E060E070E0ECE026
:1002D000F0E01FC02C91822F8154863010F42753F8
:1002E00005C0822F80538A3020F4282F41E050E04F
:1002F00002C040E050E0822F90E00E2E02C0880F36
:10030000991F0A94E2F7C82BD92B6F5F7F4F349760
:10031000119664307105F4F240932702509328023D
:10032000209334027093070260930602C49F9001E9
:10033000C59F300DD49F300D1124C901DF91CF919D
:100340000895CF93DF93809165008F7E8093650041
:1003500080919B0085FFFCCF83E580939C0080917A
:100360009B0085FFFCCF84E580939C0080919B00DF
:1003700085FFFCCF81E480939C0080919B0085FFEA
:10038000FCCF8FE480939C0080919B0085FFFCCF85
:1003900083E580939C0080919B0085FFFCCF8DE4DA
:1003A00080939C0080919B0085FFFCCF8DE0809323
:1003B0009C005D9BFECF83E58CB95D9BFECF84E501
:1003C0008CB95D9BFECF81E48CB95D9BFECF8FE441
:1003D0008CB95D9BFECF83E58CB95D9BFECF8DE430
:1003E0008CB95D9BFECF8DE08CB9809165008061FA
:1003F0008093650080916500877F80936500E5E3C9
:10040000F2E020E030E00DC05F9BFECF9CB1908316
:1004100080919B0085FFFCCF90939C002F5F3F4F06
:1004200031962132310584F3809165008860809394
:10043000650080E090E001C0019685309105E4F30D
:10044000909307028093060280E090E00E945A0198
:10045000282F809311029093120280919B0085FFB8
:10046000FCCF90939C0080919B0085FFFCCF209354
:100470009C0085E090E00E945A01282F809313028F
:100480009093140280919B0085FFFCCF90939C0079
:1004900080919B0085FFFCCF20939C008AE090E038
:1004A0000E945A01282F8093150290931602809182
:1004B0009B0085FFFCCF90939C0080919B0085FF63
:1004C000FCCF20939C008FE090E00E945A01282FDF
:1004D000809317029093180280919B0085FFFCCFB8
:1004E00090939C0080919B0085FFFCCF20939C0003
:1004F00084E190E00E945A01282F80931902909382
:100500001A0280919B0085FFFCCF90939C00809104
:100510009B0085FFFCCF20939C0089E190E00E9426
:100520005A01282F80931B0290931C0280919B00FC
:1005300085FFFCCF90939C0080919B0085FFFCCFB2
:1005400020939C0080912F029091300280912D0287
:1005500090912E02EC0180912F02909130026091D7
:100560002D0270912E026C1B7D0B882777FD8095E4
:10057000982F0E94EC0520E030E04AEF55E40E94FD
:10058000BC0587FDE8CFDF91CF910895809165008C
:100590008F7E809365005D9BFECF83E58CB95D9B6C
:1005A000FECF84E58CB95D9BFECF81E48CB95D9B69
:1005B000FECF86E48CB95D9BFECF82E58CB95D9B56
:1005C000FECF8DE48CB95D9BFECF8DE08CB95F9B37
:1005D000FECF8CB18D30D9F75F9BFECF8CB18A30C6
:1005E000D9F780916500877F80936500E5E3F2E0AD
:1005F00020E030E006C05F9BFECF8CB181932F5F7F
:100600003F4F22323105BCF330930702209306029C
:100610008091650088608093650080E090E00E9492
:100620005A01909318028093170285E090E00E948F
:100630005A0190931A02809319028AE090E00E9476
:100640005A0190931C0280931B028FE090E00E945D
:100650005A01909312028093110284E190E00E946B
:100660005A01909314028093130289E190E00E9452
:100670005A01909316028093150280916500806163
:10068000809365000895E0E0F0E020E030E040E095
:1006900050E06CE070E021C05F9BFECF9CB1892FE1
:1006A0008154863010F4975305C0892F80538A30C7
:1006B00020F4982F21E030E002C020E030E0892FC4
:1006C00090E0062E02C0880F991F0A94E2F7E82BEB
:1006D000F92B4F5F5F4F6450704044305105E4F296
:1006E000309328022093270250930702409306027A
:1006F0005F9BFECF8CB180933402CF01089510929E
:100700002802109227025D9BFECF83E58CB95D9B8A
:10071000FECF84E58CB95D9BFECF81E48CB95D9BF7
:10072000FECF8FE48CB95D9BFECF83E58CB95D9BDA
:10073000FECF8DE48CB95D9BFECF8DE08CB90E941D
:1007400043032091270230912802AC01429FC0014F
:10075000439F900D529F900D11249093120280930D
:1007600011020E9443032091270230912802AC011C
:10077000429FC001439F900D529F900D1124909372
:100780001402809313020E944303209127023091A8
:100790002802AC01429FC001439F900D529F900DD3
:1007A000112490931602809315020E944303209116
:1007B000270230912802AC01429FC001439F900D57
:1007C000529F900D112490931802809317020E945B
:1007D00043032091270230912802AC01429FC001BF
:1007E000439F900D529F900D112490931A02809375
:1007F00019020E9443032091270230912802AC0184
:10080000429FC001439F900D529F900D11249093E1
:100810001C0280931B025F9BFECF8CB15F9BFECFBF
:100820008CB1809332025F9BFECF8CB180933102FA
:100830005F9BFECF8CB15F9BFECF8CB18093340267
:1008400080E090E0089580EC87B986E886B9089545
:1008500096B196B997B1907E97B997B18770892B69
:1008600087B9369A349BFECF349A24B135B1C90189
:100870000895CF93DF930E9467001092980088E05C
:100880008093990098E190939A00109290008AE1E9
:1008900089B984E0809395009AB980B7877F80BF3B
:1008A00080916400806180936400BC9A80916400B0
:1008B00088608093640080EC87B986E886B980916F
:1008C0009B0085FFFCCF83E580939C0080919B007B
:1008D00085FFFCCF84E580939C0080919B0085FF81
:1008E000FCCF81E480939C0080919B0085FFFCCF2E
:1008F00086E480939C0080919B0085FFFCCF82E57D
:1009000080939C0080919B0085FFFCCF8DE48093B9
:100910009C0080919B0085FFFCCF8DE080939C0024
:100920005D9BFECF83E58CB95D9BFECF84E58CB9E2
:100930005D9BFECF81E48CB95D9BFECF86E48CB9D4
:100940005D9BFECF82E58CB95D9BFECF8DE48CB9BB
:100950005D9BFECF8DE08CB980916500877F809391
:100960006500809165008061809365000E94C602E9
:1009700086B186B987B1807E87B987B187B9369A43
:10098000349BFECF349A44B155B150932402409326
:1009900023028091650088608093650080916500E6
:1009A0008F7E809365009091000180919B0085FF70
:1009B000FCCF90939C009091010180919B0085FF5A
:1009C000FCCF90939C009091020180919B0085FF49
:1009D000FCCF90939C009091030180919B0085FF38
:1009E000FCCF90939C0020912F0230913002377001
:1009F00080919B0085FFFCCF30939C0080919B00F1
:100A000085FFFCCF20939C0020912D0230912E0277
:100A100080919B0085FFFCCF30939C0080919B00D0
:100A200085FFFCCF20939C0020911102909112022F
:100A300080919B0085FFFCCF90939C0080919B0050
:100A400085FFFCCF20939C0020911302909114020B
:100A500080919B0085FFFCCF90939C0080919B0030
:100A600085FFFCCF20939C002091150290911602E7
:100A700080919B0085FFFCCF90939C0080919B0010
:100A800085FFFCCF20939C002091170290911802C3
:100A900080919B0085FFFCCF90939C0080919B00F0
:100AA00085FFFCCF20939C002091190290911A029F
:100AB00080919B0085FFFCCF90939C0080919B00D0
:100AC00085FFFCCF20939C0020911B0290911C027B
:100AD00080919B0085FFFCCF90939C0080919B00B0
:100AE00085FFFCCF20939C009A01377080919B007A
:100AF00085FFFCCF30939C0080919B0085FFFCCF4D
:100B000020939C009091040180919B0085FFFCCF75
:100B100090939C0080919B0085FFFCCF90939C005C
:100B200080916500877F8093650080912F0290916E
:100B3000300280912D0290912E02EC0180912F02C3
:100B40009091300260912D0270912E026C1B7D0BF2
:100B5000882777FD8095982F0E94EC0520E030E0F3
:100B600040E253E40E94BC0587FDE8CF8091650018
:100B7000806180936500F0CEA8E1B0E0E2ECF5E0A2
:100B80000C94720869837A838B839C832D833E83C4
:100B90004F83588789E0E82EF12CEC0EFD1ECE0124
:100BA0000196B7010E946E078E010F5E1F4FCE01A6
:100BB0000596B8010E946E078985823040F08989C8
:100BC000823028F0C701B8010E94E60701C081E029
:100BD0006896E6E00C948E08A8E0B0E0E2EFF5E05D
:100BE0000C946F089B01AC0183E08983DA01C90191
:100BF0008827B7FD83959927AA27BB27B82E2115EB
:100C000031054105510519F482E089833AC08823F2
:100C1000A9F0203080E0380780E0480780E85807D6
:100C200029F460E070E080E09FEC30C0EE24FF2407
:100C30008701E21AF30A040B150B02C079018A013D
:100C40008EE1C82ED12CDC82CB82ED82FE820F8316
:100C50001887C801B7010E944A060197181619069D
:100C600084F4082E04C0EE0CFF1C001F111F0A9410
:100C7000D2F7ED82FE820F831887C81AD90ADC8268
:100C8000CB82BA82CE0101960E9499062896E9E0AD
:100C90000C948B08EF92FF920F931F937B018C01B2
:100CA00080E0E81680E0F80681E0080780E0180799
:100CB00088F48FEFE816F1040105110531F028F0F2
:100CC00088E090E0A0E0B0E017C080E090E0A0E015
:100CD000B0E012C080E0E81680E0F80680E0080787
:100CE00081E0180728F088E190E0A0E0B0E004C0BF
:100CF00080E190E0A0E0B0E020E230E040E050E0B1
:100D0000281B390B4A0B5B0B04C016950795F7940B
:100D1000E7948A95D2F7F701EB5FFE4F8081281B9D
:100D2000310941095109C9011F910F91FF90EF90BD
:100D30000895DF92EF92FF920F931F93FC01E480DE
:100D4000F58006811781D1808081823048F480E06F
:100D500090E0A0E1B0E0E82AF92A0A2B1B2BA5C0FD
:100D6000843009F49FC0823021F4EE24FF248701EF
:100D700005C0E114F1040105110519F4E0E0F0E00B
:100D800096C0628173819FEF623879070CF05BC077
:100D900022E83FEF261B370B2A3131052CF020E0EB
:100DA00030E040E050E02AC0B801A701022E04C0A4
:100DB00076956795579547950A94D2F781E090E02C
:100DC000A0E0B0E004C0880F991FAA1FBB1F2A959E
:100DD000D2F70197A109B1098E219F21A023B12348
:100DE0000097A105B10521F081E090E0A0E0B0E01E
:100DF0009A01AB01282B392B4A2B5B2BDA01C90155
:100E00008F779070A070B07080349105A105B10506
:100E100039F427FF09C0205C3F4F4F4F5F4F04C09C
:100E2000215C3F4F4F4F5F4FE0E0F0E02030A0E00B
:100E30003A07A0E04A07A0E45A0710F0E1E0F0E02A
:100E400079018A0127C06038710564F5FB01E1581A
:100E5000FF4FD801C7018F779070A070B0708034B9
:100E60009105A105B10539F4E7FE0DC080E490E0DD
:100E7000A0E0B0E004C08FE390E0A0E0B0E0E80EB6
:100E8000F91E0A1F1B1F17FF05C016950795F7943B
:100E9000E794319687E016950795F794E7948A953D
:100EA000D1F705C0EE24FF248701EFEFF0E06E2FAD
:100EB000679566276795902F9F77D794DD24D79401
:100EC0008E2F8695492F462B582F5D29B701CA01D1
:100ED0001F910F91FF90EF90DF900895FC01DB01CF
:100EE000408151812281622F6F7770E0221F22277B
:100EF000221F9381892F880F822B282F30E0991F82
:100F00009927991F11969C93119721153105A9F5E1
:100F1000411551056105710511F482E037C082E881
:100F20009FEF13969C938E9312979A01AB0167E003
:100F3000220F331F441F551F6A95D1F783E08C930E
:100F40000DC0220F331F441F551F12968D919C9187
:100F50001397019713969C938E931297203080E0FD
:100F6000380780E0480780E4580758F314962D931B
:100F70003D934D935C93179708952F3F310579F476
:100F8000411551056105710519F484E08C930895AC
:100F900064FF03C081E08C9312C01C9210C02F57D5
:100FA000304013963C932E93129783E08C9387E006
:100FB000440F551F661F771F8A95D1F770641496EA
:100FC0004D935D936D937C93179708951F93DC0168
:100FD000FB019C91923008F447C08081823008F474
:100FE00043C0943051F411961C91843099F581815D
:100FF000682F70E0611B71093FC0843021F092308E
:1010000031F48230B9F18181882389F12DC01196A4
:101010001C9111978230F1F081811817D9F4129642
:101020002D913C911397828193818217930794F0BD
:1010300028173907BCF014968D919D910D90BC91A5
:10104000A02D2481358146815781281739074A0709
:101050005B0718F4112341F00AC082179307A40715
:10106000B50740F4112319F061E070E005C06FEF9F
:101070007FEF02C060E070E0CB011F91089597FB05
:10108000092E07260AD077FD04D00CD006D0002008
:101090001AF4709561957F4F0895F6F790958195B4
:1010A0009F4F0895AA1BBB1B51E107C0AA1FBB1F7E
:1010B000A617B70710F0A61BB70B881F991F5A95E4
:1010C000A9F780959095BC01CD0108952F923F928C
:1010D0004F925F926F927F928F929F92AF92BF9248
:1010E000CF92DF92EF92FF920F931F93CF93DF93F4
:1010F000CDB7DEB7CA1BDB0B0FB6F894DEBF0FBE51
:10110000CDBF09942A88398848885F846E847D849D
:101110008C849B84AA84B984C884DF80EE80FD809F
:101120000C811B81AA81B981CE0FD11D0FB6F89415
:0E113000DEBF0FBECDBFED010895F894FFCFD6
:10113E00FFFEFDFC4300010202030303030404044B
:10114E000404040404050505050505050505050546
:10115E000505050505060606060606060606060626
:10116E000606060606060606060606060606060611
:10117E0006060606060707070707070707070707F6
:10118E0007070707070707070707070707070707E1
:10119E0007070707070707070707070707070707D1
:1011AE0007070707070707070707070707070707C1
:1011BE0007070707070808080808080808080808A6
:1011CE000808080808080808080808080808080891
:1011DE000808080808080808080808080808080881
:1011EE000808080808080808080808080808080871
:1011FE000808080808080808080808080808080861
:10120E000808080808080808080808080808080850
:10121E000808080808080808080808080808080840
:10122E000808080808080808080808080808080830
:06123E0008080808080082
:00000001FF
