:100000000C9446000C9463000C9463000C94630001
:100010000C9463000C9463000C9463000C946300D4
:100020000C9463000C9463000C9463000C946300C4
:100030000C9463000C9463000C9463000C946300B4
:100040000C9483010C9463000C94B8010C94E001AF
:100050000C9463000C9463000C9463000C94630094
:100060000C9463000C9463000C9463000C94630084
:100070000C9463000C9463000C9463000C94630074
:100080000C9463000C9463000C94630011241FBE55
:10009000CFEFD0E1DEBFCDBF11E0A0E0B1E0E6E7F9
:1000A000FEE000E00BBF02C007900D92AA34B1073A
:1000B000D9F712E0AAE4B1E001C01D92AB35B10757
:1000C000E1F70C9483000C940000B89BC09A87B3AE
:1000D000866087BBC39A8DB180658DB90895C0983D
:1000E0008FB9779BFECFC09A8FB199270895BB9A9D
:1000F0008DB180658DB90895779BFECF8FB199271B
:1001000087FD90950895CDEFD0E1DEBFCDBF0E9471
:1001100062020E94A50180B7877F80BF8091640042
:10012000806180936400BC9A8091640088608093B1
:1001300064000E9465008091650080618093650085
:100140006BE172E08DE392E00E948C021A821982C8
:1001500089819A8101969A83898380916500806163
:100160008093650081E00E943D018DE390E00E9454
:100170006F001C018CE390E00E946F002C018AE06C
:1001800090E00E946F003C018CE090E00E946F00C4
:100190005C018EE090E00E946F007C0184E090E0C2
:1001A0000E946F004C0186E090E00E946F006C019D
:1001B00088E090E00E946F008C01E981FA81FF9352
:1001C000EF9380E091E09F938F930E940903FF9249
:1001D000EF92BF92AF927F926F92EAE0F1E0FF93CD
:1001E000EF930E9409031F930F93DF92CF929F9288
:1001F0008F928FE191E09F938F930E9409033F922A
:100200002F925F924F92E5E3F1E0FF93EF930E940C
:10021000090360915302709154028AE090E00E94B9
:10022000DC02809165008F7E8093650082E00E94F1
:100230003D0100E010E08DB79EB74A960FB6F894E6
:100240009EBF0FBE8DBF0E94AC010F5F1F4F0436D3
:100250001105C9F77DCF009731F0A0EABFE01197F3
:10026000F1F70197D1F70895009731F0A4E0B0E0DD
:100270001197F1F70197D1F70895282F09C084E667
:1002800090E0A0EABFE01197F1F70197D1F7215074
:100290002223A9F70895282F09C081E090E0A0EA61
:1002A000BFE01197F1F70197D1F721502223A9F769
:1002B0000895282F09C08AE090E0A0EABFE01197D6
:1002C000F1F70197D1F721502223A9F70895282F9C
:1002D00009C08AE090E0A4E0B0E01197F1F701973F
:1002E000D1F721502223A9F70895282F09C084E6C9
:1002F00090E0A4E0B0E01197F1F70197D1F7215019
:100300002223A9F708951F920F920FB60F9211247E
:100310008F939F9380914C018F5F80934C018A3023
:1003200058F010924C0180914A0190914B01019636
:1003300090934B0180934A0186E082BF9F918F91F9
:100340000F900FBE0F901F90189584E083BF12BED0
:1003500081E087BF7894089520914A0130914B0144
:1003600080914A0190914B0182179307C9F3089538
:100370001F920F920FB60F9211242F938F939F937A
:10038000EF93FF932CB18091D0019091CF01891B05
:10039000803861F08091D001E82FFF27EF77F0706F
:1003A000E153FE4F22838F5F8093D001FF91EF9145
:1003B0009F918F912F910F900FBE0F901F901895C6
:1003C0001F920F920FB60F9211248F939F93EF936A
:1003D000FF9390914E0180914D01981711F455981B
:1003E0000DC080914D01E82FFF27EF77F070E35BA0
:1003F000FE4F92819CB98F5F80934D01FF91EF91E9
:100400009F918F910F900FBE0F901F901895909114
:10041000D0018091CF019817D1F39091CF01E92FAE
:10042000FF27EF77F070E153FE4F82819F5F90933B
:10043000CF01992708950E94070208951F93182F4E
:100440008A3019F48DE00E941E0280914E01909135
:100450004D01891B8038C9F380914E01E82FFF2799
:10046000EF77F070E35BFE4F12838F5F80934E0156
:10047000559A80E090E01F9108950E941E02089511
:10048000CF93DF93EC0108C08A3019F48DE00E940D
:100490001E0289910E941E0288818823A9F7DF919C
:1004A000CF9108951F93CF93DF93162FEC0104C0D3
:1004B00089910E941E0211501123D1F7DF91CF9133
:1004C0001F9108959FEF9BBB1ABA98BB80E187BB31
:1004D00095BB14BA92BB11BA93B912B810926200CC
:1004E000109261009093650088E18093640010BED3
:1004F0001092900089E189B91BB888E98AB98EE029
:100500008093950087EC86B986B1877C11F0369987
:10051000FECF0E94A5010895EF92FF920F931F93C3
:10052000CF93DF938C017B01892B11F4672BD1F1E1
:100530006EE070E081E090E00E94DE05FC01009733
:1005400089F1DC0180E88383E114F10471F0F38622
:10055000E28681E883838091510290915202892B37
:1005600021F4F0935202E093510201151105E1F0DC
:1005700011870087838182608383809153029091E9
:100580005402892B89F4F0935402E0935302809132
:10059000550290915602892B39F4F0935602E0935C
:1005A000550202C0A0E0B0E0CD01DF91CF911F91D4
:1005B0000F91FF90EF9008950F931F93CF93DF93C8
:1005C0008C01EB018B81992781FF1BC082FF0DC03D
:1005D0002E813F818C819D812817390764F4E88141
:1005E000F9810193F983E88306C0E885F985802FB6
:1005F0000995892B31F48E819F8101969F838E838B
:1006000002C00FEF1FEFC801DF91CF911F910F9133
:100610000895CF93DF93CDB7DEB722970FB6F89446
:10062000DEBF0FBECDBFFE01379661917191FA8397
:10063000E983AF0180915302909154020E942903F3
:1006400022960FB6F894DEBF0FBECDBFDF91CF91DB
:1006500008952F923F924F925F926F927F928F9266
:100660009F92AF92BF92CF92DF92EF92FF920F9341
:100670001F93CF93DF93CDB7DEB762970FB6F89491
:10068000DEBF0FBECDBF8824992454012C017A8B84
:10069000698B3A01FC0117821682838181FD03C0B8
:1006A0008FEF9FEF72C2CC24DD245EC2C0FE45C234
:1006B000832D80538A30E0F4F0E33F1641F42D851A
:1006C000222329F4C3FC03C080E091E078C08AE0D3
:1006D000ED85E802C0011124380EF32DF053FD879B
:1006E000F7FF02C02FE72D87C3FC39C22D8437C224
:1006F000C60188709070C3FE05C03D85332311F498
:10070000E1E0ED87F7E6F3156CF125E632160CF023
:1007100067C033E5331609F487C03315BCF08BE2AC
:10072000381609F441C083154CF090E2391609F4EB
:100730003FC0E3E23E1609F0F6C144C0FDE23F16B9
:10074000E1F12EE2321609F0EEC141C033E6331674
:1007500009F44CC033150CF480C088E5381609F054
:10076000E2C11FC0E0E73E1609F4A1C0E3155CF04A
:10077000FCE63F1691F12FE6321689F039E6331682
:1007800009F0D1C16AC0E5E73E1609F498C0F8E760
:100790003F1639F023E7321609F0C5C12FC038E003
:1007A0008DC080E1888B8BC0E0E1F0E0CE2ADF2AAB
:1007B00020E230E0C22AD32AD2C180E890E0C82AE1
:1007C000D92ACDC1E0E4F0E0CE2ADF2AC8C128E072
:1007D00030E0C22AD32A1D86C2C184E090E0EFCF68
:1007E0005FE3852E2A9443E6342E33C1F3018080E3
:1007F0002A9422E030E0620E731E2BC1F301808048
:100800009180892B49F0FD856F2F772767FD7095C3
:10081000C4010E940E0719C0F40101900020E9F7FD
:100820003197E819E88B12C0F30180809180892B01
:1008300049F0FD856F2F772767FD7095C4010E94F1
:10084000FC0603C0C4010E94F306888B22E030E05E
:10085000620E731E3889231AFCC0C2FE08C0F30161
:1008600080819181A281B38124E030E009C0F3014D
:1008700080819181AA2797FDA095BA2F22E030E0D0
:10088000620E731E4C015D01B7FF0CC082E090E068
:10089000C82AD92AB094A09490948094811C911C69
:1008A000A11CB11CEFEBFFEFCE22DF2221C020E420
:1008B00030E0C22AD32A38E7332E30E1388BC2FE2B
:1008C00008C0F30180819181A281B38124E030E0EE
:1008D00007C0F30180819181AA27BB2722E030E085
:1008E000620E731E4C015D018FEC9FEFC822D9226E
:1008F00085017401FE013196FF87EE87F8898F2EFE
:100900009924AA24BB24C801B701A50194010E941F
:1009100019076A301CF0630D615201C0605DEE85FD
:10092000FF856193FF87EE87C801B701A501940198
:100930000E94190779018A012115310541055105E8
:1009400011F7882499245401CE0101968E84881AC7
:10095000C60182739070892B09F02A94C6FE07C0E5
:10096000F889F03111F482E001C081E0281A28E012
:10097000E22EF12CEC20FD20C3FE16C08D85282F21
:10098000332727FD3095882D9927821793073CF050
:10099000E7EFFFEFCE22DF22EE24FF2405C0FD8526
:1009A000F819FD872F1A01C02818C60180789170A8
:1009B000892B69F4822D06C0B20180E290E00E948A
:1009C000DC02812F182F11501816B4F3212EC1FE0E
:1009D00004C0B2018DE290E00BC0C4FE04C0B201BD
:1009E0008BE290E005C0C5FE05C0B20180E290E058
:1009F0000E94DC02C6FE0FC0B20180E390E00E94BC
:100A0000DC022889203139F4B201832D992787FD32
:100A100090950E94DC02D0FE0DC0822D06C0B2016E
:100A200080E390E00E94DC02812F182F11501816ED
:100A3000B4F3212EEF2869F02D8506C0B20180E3C2
:100A400090E00E94DC02212F122F11501216B4F3F5
:100A50001D8790E8E92EF12CEC20FD20C7FC0DC08D
:100A6000822D06C0B20180E290E00E94DC02812F5C
:100A7000182F11501816B4F3212E33E6331641F413
:100A8000B201882D992787FD90950E94DC023BC01A
:100A900083E7381689F4840109C0F80181918F0138
:100AA000B201992787FD90950E94DC02F889F150E8
:100AB000F88BFF3F91F715C023E5321619F00E852C
:100AC0001F851AC0840108C0F8018491B2019927DA
:100AD0000E94DC020F5F1F4FF889F150F88BFF3F37
:100AE00099F7480110C0F80182918F01B20199274E
:100AF00087FD90950E94DC02CE0101960817190728
:100B000091F71F870E87EF28A9F0822D06C0B2014A
:100B100080E290E00E94DC02812F182F11501816FD
:100B2000B4F3212E07C0B201832D992787FD90953C
:100B30000E94DC02CC24DD2412C0F5E23F1641F411
:100B40002AE0288B22241D8681E0C82ED12C07C0E4
:100B5000B201832D992787FD90950E94DC02898937
:100B60009A8901969A8B898BF201838183FF04C055
:100B7000E989FA89349003C0E989FA893080332001
:100B800009F094CDF2018681978162960FB6F894B0
:100B9000DEBF0FBECDBFDF91CF911F910F91FF90B0
:100BA000EF90DF90CF90BF90AF909F908F907F900D
:100BB0006F905F904F903F902F9008950F931F93E9
:100BC000CF93DF93869F8001879F100D969F100D16
:100BD0001124C8010E94FA05EC01009729F0A80130
:100BE00060E070E00E940707CE01DF91CF911F9176
:100BF0000F910895CF93DF93AC01029710F442E078
:100C000050E0A0915902B0915A02FD01C0E0D0E03D
:100C100020E030E020C0808191818417950769F43D
:100C200082819381209719F09B838A8304C09093DB
:100C30005A0280935902CF0132C04817590738F43D
:100C40002115310519F08217930708F49C01EF0173
:100C50000280F381E02D3097F1F62115310589F1FD
:100C6000C901841B950B049708F4A901E0E0F0E0AA
:100C700026C08D919C91119782179307E9F448172C
:100C8000590779F4ED018A819B81309719F093839C
:100C9000828304C090935A0280935902CD01029638
:100CA00049C0841B950BFD01E80FF91F4193519337
:100CB00002978D939C933AC0FD01A281B381109756
:100CC000C1F68091570290915802892B41F480918E
:100CD00046019091470190935802809357022091CA
:100CE0004801309149012115310541F42DB73EB736
:100CF0008091440190914501281B390BE0915702E6
:100D0000F09158022E1B3F0B2417350788F0CA01BB
:100D100002962817390760F0CF01840F951F0296BD
:100D2000909358028093570241935193CF0102C090
:100D300080E090E0DF91CF910895CF93DF9300970B
:100D400009F44EC0EC0122971B821A82A09159022D
:100D5000B0915A02109711F140E050E001C0DC015F
:100D6000AC17BD0700F1BB83AA83FE01219131912D
:100D7000E20FF31FEA17FB0771F42E5F3F4F8D91CF
:100D80009C911197820F931F99838883FD01828123
:100D900093819B838A834115510559F4D0935A025C
:100DA000C09359021DC0FD0182819381AD0100975E
:100DB000B1F6FA01D383C28321913191E20FF31F7F
:100DC000EC17FD0769F42E5F3F4F88819981820FF0
:100DD000931FFA01918380838A819B81938382830D
:100DE000DF91CF910895FC0105900020E9F78095EF
:100DF00090958E0F9F1F0895FC01059061507040E3
:100E00000110D8F7809590958E0F9F1F0895DC01F3
:100E100001C06D9341505040E0F70895FC016150CE
:100E2000704001900110D8F7809590958E0F9F1F0C
:100E30000895A1E21A2EAA1BBB1BFD010DC0AA1F1B
:100E4000BB1FEE1FFF1FA217B307E407F50720F033
:100E5000A21BB30BE40BF50B661F771F881F991FAE
:100E60001A9469F760957095809590959B01AC01F7
:060E7000BD01CF01089551
:100E76006C6F6F703A2564200A0061636320783ACC
:100E8600257820793A2578207A3A2578200A00674D
:100E960079726F20783A257820793A2578207A3A3F
:100EA6002578200A007374617475733A20257825B5
:0A0EB60078200A0020005B02000013
:00000001FF
