:020000040000FA
:200000000C9434000C9451000C9451000C9451000C9451000C945A020C9451000C9451006A
:200020000C9451000C9451000C9451000C9451000C9425020C9451000C9451000C94510062
:200040000C9414020C9451000C9451000C9451000C9451000C9451000C9451000C94510053
:200060000C9451000C94510011241FBECFEFD4E0DEBFCDBF11E0A0E0B1E0ECE9FBE002C07D
:2000800005900D92A431B107D9F711E0A4E1B1E001C01D92A033B107E1F70E9468040C9447
:2000A000CD050C940000F999FECF92BD81BDF89A80B599270895F999FECF1FBA92BD81BDF9
:2000C00060BD0FB6F894FA9AF99A0FBE0895CF93DF93F89415BCA89A16BC10921D0110927A
:2000E00085001092840083E38093800088E1809381008CEE9CE2909389008093880080ECB4
:200100009BE290938B0080938A0080916F00846080936F0086B3856086BB2A98229A809143
:200120006E00816080936E00A89A1AB81BB82898209A289A88E08093150189EE97E090932A
:20014000110180931001C0EFD1E008C081E0CF3FD80718F4CE010E945B002196CE01805FB6
:20016000E82FFF27E050FF4F6081662379F78FEF91E00E945B007894DF91CF910895A89548
:200180009AB1482F552721E030E0042E02C0220F331F0A94E2F7822F809598239AB99BB102
:2001A00089238BB9809168008B7F8093680020936D00DA9A10921401809168008460809396
:2001C000680015BCA89A16BC10921D0182E085BD20E030E060E080911D01863718F080E0CA
:2001E00090E00895809114018823A9F31092140189B19927042E02C0959587950A94E2F723
:2002000080FF06C0209116013091170161E0E3CF662309F38091160190911701821B930BE4
:2002200015BCA89A16BC10921D0108951F93CF93DF931AB88FEF8BB990E0A89515BCA89AA2
:2002400016BC10921D0182E085BD80911D018637E0F39F5F933089F7A8956091190120E020
:2002600030E062C0A895A89A16BC10921D0170E015C089B19927022E02C0959587950A9446
:20028000E2F780FF02C070911D0180911D019927871B9109099710F05F5F04C080911D01A9
:2002A000873738F3533050F081E090E0022E02C0880F991F0A94E2F7682B03C04F5F453090
:2002C00089F62F5F3F4F2830310571F5609319011BB810E0C0E0D0E08091190199270C2E4A
:2002E00002C0959587950A94E2F780FF18C08C2F0E94BF00805293408957954078F081E0E9
:2003000090E00C2E02C0880F991F0A94E2F780952091190128232093190101C01F5F2196BD
:20032000C830D10521F0D8CF50E040E09BCF812F9927DF91CF911F9108950F931F931AB8CA
:200340008FEF8BB990E0A89515BCA89A16BC10921D0182E085BD80911D018637E0F39F5F28
:20036000933089F700E0A895A89A16BC10921D0140E0202F332715C089B19927022E02C0BF
:20038000959587950A94E2F780FF02C040911D0180911D019927841B9109099710F01BB8D5
:2003A00008C080911D01873738F30F5F0830D0F6DACF10E0802F0E94BF00815293408757C4
:2003C0009540B8F71F5F1330A8F31F910F910895A8958CED95E090931F0180931E0190938D
:2003E00021018093200128EE33E030932301209322019093250180932401309327012093A2
:200400002601309329012093280130932B0120932A0130932D0120932C018CEE9CE2909333
:200420002F0180932E0108951F920F920FB60F9211248F9380911D018F5F80931D018F9130
:200440000F900FBE0F901F9018951F920F920FB60F9211248F939F93EF93FF9378948091C3
:2004600015018F5F8093150180911501893010F010921501E0911501FF27EE0FFF1FE25EAF
:20048000FE4F80819181909389008093880080918800909189008C52914090938B00809302
:2004A0008A00FF91EF919F918F910F900FBE0F901F9018951F920F920FB60F9211248F93DC
:2004C0009F9386B580931C01A89B08C0A89A80911D018F5F80931D0110921C0180911C01F7
:2004E00090911D01909317018093160181E0809314019F918F910F900FBE0F901F90189518
:200500004BE550E00E94A0050895DF92EF92FF920F931F93CF93DF9324982C9A90E0A895BD
:2005200015BCA89A16BC10921D0182E085BD80911D018637E0F39F5F953089F71C99EFC00C
:2005400090E0A89515BCA89A16BC10921D0182E085BD80911D018637E0F39F5F973089F7A1
:200560001C99DDC0289A80911801823020F082E08093120119C08130D1F480911901482F02
:20058000552720E030E0CA01022E02C0959587950A94E2F780FF03C02093120105C02F5FFA
:2005A0003F4F2830310579F7DD24D39404C082E080931201DD249AE2E92E90E0F92EE701E8
:2005C00060911201CE010E945B00219620E0C533D207B1F710E000E0C0E0D0E080911201D7
:2005E0000E94BF009C01805293408957954018F4C20FD31F0F5F1F5F1A3081F7602F7727F9
:20060000CE010E94B905A895CB01845A9640855F914078F4C4E1D0E08B01075E1F4FB80160
:20062000CE010E948002229640E0CA32D407B9F714C0CB0180529340855F914078F4C4E15D
:20064000D0E08B0109511040B801CE010E948002229640E0CA32D407B9F7D39481E08D153F
:2006600018F5289A90E0A89515BCA89A16BC10921D0182E085BD80911D018637E0F39F5FF8
:20068000933089F7289890E0A89515BCA89A16BC10921D0182E085BD80911D018637E0F3A2
:2006A0009F5F9E3189F7DDCFC4E1D0E069EE77E0CE010E948002229620E0CA32D207B1F716
:2006C00062E0C7010E945B000894E11CF11C45E3E41640E0F406A1F7289A90E0A89515BC59
:2006E000A89A16BC10921D0182E085BD80911D018637E0F39F5F9E3189F7289890E0A89509
:2007000015BCA89A16BC10921D0182E085BD80911D018637E0F39F5F933089F7DDCF2C9820
:20072000DF91CF911F910F91FF90EF90DF900895CF93DF93C4E1D0E069EE77E0CE010E9437
:200740008002229680E0CA32D807B1F7CAE2D0E062E0CE010E945B00219680E0C533D80724
:20076000B9F782E08093120189EE97E09093110180931001DF91CF91089563E570E00E9453
:20078000880508958F929F92AF92BF92CF92DF92EF92FF920F931F93CF93DF93A8953AE2E6
:2007A000C32E30E0D32E76014601C7010E945300A82E082F1127E401BB24CE010E945300EF
:2007C00099278017910709F4B394219620E0C533D20799F785E08B1550F40830110508F03F
:2007E00068C0A09212019AE09B15C8F008C00894E11CF11C25E3E21620E0F206B1F685E038
:200800008B1508F056C0602FC6010E945B000894C11CD11C95E3C91690E0D906A1F724E12E
:20082000C22E20E0D22E76014601C7010E94BD038C01E401BB24CE010E94BD03801791072F
:2008400009F4B394229620E0CA32D207A1F785E08B1568F4C801845A9640855F914088F024
:20086000C80180529340855F914018F50AC082E090E0E80EF91E9AE2E91690E0F90641F084
:20088000D4CF10931101009310012AE02B1598F085E08B1570F4B801C6010E94800282E01B
:2008A00090E0C80ED91E9AE2C91690E0D90619F0F2CF0E949803DF91CF911F910F91FF909B
:2008C000EF90DF90CF90BF90AF909F908F900895CFEED4E0DEBFCDBF88E10FB6F8948093EB
:2008E0006000109260000FBE88E190E02BE00FB6F894A895809360000FBE20936000A895C7
:200900000E9467000E94C2030E949D010E941601809318010E9485020E94E8018FEF8BB9CC
:20092000809168008B7F80936800D0901901D0926D00DA9A109214018091680084608093D5
:20094000680015BCA89A16BC10921D0182E085BD29B12D2150901201E0901001F0901101B8
:20096000992444248824CC24C39490E1A92E00E03E010894611C711C03C0882401C04424BA
:20098000A895A89A16BC10921D011D2D5AC080911D01863708F05BC0809114018823B9F366
:2009A00069B1612310921401B62EB226D30171E040E050E0872F8B2109F43AC0872F8623F9
:2009C00049F0809116019091170111969C938E93972A2EC0892D872359F1872F8095182327
:2009E00020911601309117018D919C911197281B390BC9018152934087579540C8F4541693
:200A000061F48DEDE81685E0F80620F02E153F0520F01BC0E216F306C0F4CC2049F4F894CA
:200A2000FA01EE0FFF1FE25EFE4F3183208378944F5F5F4F1296262F4830510511F0770F02
:200A4000B9CF112309F0A3CF02C0262F1FEF0F5F0A1528F085B191E0892785B900E01123FC
:200A600099F5E1E0CE1609F08ACF839434E0381508F085CF809181008D7F80938100109259
:200A800085001092840088E0809315018CEE9CE29093890080938800809188009091890098
:200AA0008C52914090938B0080938A0086B3856086BB80918100826080938100289A4424AB
:200AC000CC2454E0A52E22C029B12D21CC2009F054CF439484E0841508F04FCF809184008E
:200AE00090918500845F9140C8F7809181008D7F8093810086B3856086BB10928500109283
:200B000084008824CC24C39440E1A42E00E038CFCF92DF92EF92FF920F931F937C016B0163
:200B2000FB010995082FC7010196F6010995182FC8011F910F91FF90EF90DF90CF90089517
:200B4000CF92DF92EF92FF920F931F938C017B016A01FA010995EF2CFF246E2DC801019617
:200B6000F60109951F910F91FF90EF90DF90CF900895AA1BBB1B51E107C0AA1FBB1FA61723
:200B8000B70710F0A61BB70B881F991F5A95A9F780959095BC01CD010895FFCF5365727656
:100BA0006F3270706D2056342E313000E90702002C
:203800000C94341C0C94511C0C94511C0C94511C0C94511C0C94511C0C94511C0C94511C5D
:203820000C94511C0C94511C0C94511C0C94511C0C94511C0C94511C0C94511C0C94511C20
:203840000C94511C0C94511C0C94511C0C94511C0C94511C0C94511C0C94511C0C94511C00
:203860000C94511C0C94511C11241FBECFEFD4E0DEBFCDBF11E0A0E0B1E0E2E3FFE302C016
:2038800005900D92A239B107D9F712E0A2E9B1E001C01D92A531B107E1F70E94C01D0C948E
:2038A000981F0C94001CF999FECF92BD81BDF89A80B599270895982F8091C00085FFFCCF9E
:2038C0009093C6008091C00085FFFCCF089585B191E0892785B91092850010928400B19A15
:2038E00005C0B19B03C080E090E008958091C00087FFF7CF8091C60099270895CF93DF9362
:20390000EC018DE00E945B1C8AE001C021960E945B1C88818823D1F7DF91CF9108952F928F
:203920003F924F925F926F927F928F929F92AF92BF92CF92DF92EF92FF920F931F93CF9354
:20394000DF936DE7A62E61E0B62E55E6C52E51E0D52E45E9E42E41E0F42E32E0232E312C03
:203960002E0C3F1C22E6622E21E0722E94E0492E91E0592E8CE0882E81E0982EE9C0809193
:20398000C6008091C600C5010E947E1C0E94671C182F8823D9F30E945B1C113411F01136FF
:2039A00059F50E94671C182F882381F30E945B1C143511F0143751F7C0E0D0E00C2F0E940B
:2039C000671C182F0E945B1CCB30D10509F4BDC01D3011F01A3041F4E02FFF27EB56FE4F29
:2039E0001082CC2399F20DC0FE01EB56FE4F10832196112359F2E2CF1A3029F21D3031F60E
:203A0000C2CF0F3F09F4A4C0C7010E94541F1092940180919501823509F44BC0873521F01F
:203A2000893409F092C078C080919601853459F0863439F0823409F088C0F10127E01FEFBB
:203A400006C081E001C082E08093940181C08081803351F481E090E0022E02C0880F991F28
:203A60000A94E2F780951823215031962F3F79F710929F0142E050E0B701812F99270E940B
:203A80005E1FC7010E947E1C80E091E00E947E1C0E94671C893511F0893749F489E0E1E08D
:203AA000F0E0012E80935700E895C3014FC0C2014DC080919601853409F1863420F482349E
:203AC00009F043C006C0883491F08C3409F03DC007C089E0E1E0F0E080935700849114C01D
:203AE00089E0E0E0F0E08093570084910DC089E0E3E0F0E080935700849106C089E0E2E015
:203B0000F0E080935700849142E050E0B70199270E945E1FC7011AC08DE00E945B1C8AE0DB
:203B20000E945B1CC0EED1E0CE0121960E94531C982F81508E3F18F4892F0E945B1C82E0D2
:203B4000C030D80789F7C40101C0C6010E947E1C80919401882309F412CFDF91CF911F91DE
:203B60000F91FF90EF90DF90CF90BF90AF909F908F907F906F905F904F903F902F900895E6
:203B8000CFEFD4E0DEBFCDBF23982B9A8AE196E090938900809388008DE0809381000E943F
:203BA000671C1B9B02C00C9400001092C00088E18093C10086E08093C2001092C50083E3C3
:203BC0008093C4005098589A519A209A289A10929401109281000E948F1C83E391E00E94AD
:203BE0007E1C8AE196E090938900809388008DE08093810083E40E945B1C0E94671C8130AC
:203C0000C9F788249924442433242224AA24BB246624772443940E94671C182F0E94671C3C
:203C2000212F3327A901480F511D4F3F510519F064E0D62E01C0DD24842D9927019728172C
:203C4000390711F452E0D52A141511F081E0D82A85010B561E4F50E8C52EEE24FF240E940B
:203C6000671CF80180839927982F88278E259F2538E0532EEC01CC0FDD1F97FF04C081E2FE
:203C800090E1C827D9275A94CE01A1F7CA940F5F1F4F7E01CC2019F740E850E0A40EB51EDD
:203CA0000E94671C082F0E94671C282F11278D2F99270817190731F4822F9927D0708C17C0
:203CC0009D0711F058E0D52ADD2081F033944A9480E89FEFA80EB91E93E09D1510F485E1E3
:203CE000A2C0E1E0DE1609F4B6C09CC080919401813009F06AC063C0F1E88F16F7E39F0644
:203D000008F0A7C0AC2DBB2770E007B600FCFDCFF999FECFEC2DFF2761E0472F5527EB56A2
:203D2000FE4F81819927982F882720813327822B932BFA010C0160935700E8951124F2E0C2
:203D4000CF0E7E5F77FFE1CF07B600FCFDCFF999FECF83E0F40180935700E89507B600FCA7
:203D6000FDCFF999FECF85E0F40180935700E89507B600FCFDCFF999FECF81E18093570027
:203D8000E89520E030E0C22FDD27CE01880D991DFC019491CA0FDB1FCB56DE4F888198178C
:203DA00009F059C02F5F3F4F2038310561F740E850E0840E951E80E89FEFA80EB91E90E857
:203DC000A916B10408F098CF2DC080919401823049F5C0E0D0E020C0F0E06F16F2E07F06B1
:203DE00018F02224239417C0FF27EB56FE4F1081F999FECF1FBA72BC61BC10BD0FB6F89401
:203E0000FA9AF99A0FBEC3010E94531C811719F50894611C711C2196EC2FC038D105E1F616
:203E2000AA24BB2486E00E945B1C49E0431598F00E94671C843009F0EDCE85E10E945B1C41
:203E40000E94671C843039F486E00E945B1C10E00AC02224239488E10E945B1C53945AE083
:203E60005516C9F711E08091C1008F7E8093C10084E89EE190938900809388000E94671C1C
:203E80008091C10080618093C100222019F080E591E007C0112319F085E691E002C08BE667
:203EA00091E00E947E1C92CEDC016C9161566A3108F0605E6F5B6D93C1F70895FB019F0158
:203EC000423074F0453264F4642F77270E94841F805D8A330CF0895D8193CB010097A1F73C
:203EE0001082C9010C94741FDC01FC01672F71917723E1F7329704C07C916D9370836291CF
:203F0000AE17BF07C8F30895AA1BBB1B51E107C0AA1FBB1FA617B70710F0A61BB70B881FE2
:203F2000991F5A95A9F780959095BC01CD010895FFCF592F4E0041626F7274656400426FC2
:203F40006F744C6F616465722056332E320D0A43687269732045667374617468696F7520B2
:203F600032303039005354415254205448452058204D4F44454D205452414E534645520D4B
:203F80000A004572726F72206D656D6F72792066756C6C004F4B004552524F520075706414
:203FA000617465207375636365737366756C0028415457463D777269746520666C61736877
:043FC000293E000096
:0400000500003800BF
:00000001FF
