:100000000C9446000C9465000C9465000C946500FB
:100010000C9465000C9465000C9465000C946500CC
:100020000C9465000C9465000C9465000C946500BC
:100030000C9465000C9465000C9465000C946500AC
:100040000C9403010C9465000C9465000C946500FD
:100050000C9465000C9465000C9465000C9465008C
:100060000C9465000C9465000C9465000C9465007C
:100070000C9465000C9465000C9465000C9465006C
:100080000C9465000C9465000C94650011241FBE4F
:10009000CFEFD0E1DEBFCDBF11E0A0E0B1E0E4E7FB
:1000A000F2E000E00BBF02C007900D92A030B10754
:1000B000D9F711E0A0E0B1E001C01D92A430B10772
:1000C000E1F70E9483000C9438010C940000109218
:1000D000980088E08093990088E180939A000895C1
:1000E0001092900088E089B988E18AB90895982F24
:1000F00080919B0085FFFCCF90939C0008955D9BB1
:10010000FECF8CB90895EF92FF920F931F93CF9378
:10011000DF931092900098E099B988E18AB9109223
:1001200098009093990080939A0001E412E493E47C
:10013000E92E84E4F82E0E94250180B7877F80BFD6
:1001400080916400806180936400BC9A8091640017
:100150008860809364008091650080618093650071
:1001600080916500886080936500C49A80916500E5
:1001700080618093650080916500877F8093650032
:10018000C49A0093030180919B0085FFFCCF0093EC
:100190009C005D9BFECF0CB91093030180919B00E6
:1001A00085FFFCCF10939C005D9BFECF1CB9C0E087
:1001B000D0E00E942C012196C233D105D1F7809165
:1001C0006500806180936500809165008860809300
:1001D0006500C498E092030180919B0085FFFCCFED
:1001E000E0929C00F092030180919B0085FFFCCF80
:1001F000F0929C00C0E0D0E00E942C012196C23316
:10020000D105D1F798CF1F920F920FB60F921124FC
:100210008F939F93809102018F5F809302018A30B8
:1002200058F0109202018091000190910101019615
:10023000909301018093000186E082BF9F918F918E
:100240000F900FBE0F901F90189584E083BF12BED1
:1002500081E087BF789408952091000130910101D9
:10026000809100019091010182179307C9F30895CD
:04027000F894FFCF30
:00000001FF
