:100000000C9446000C9463000C9463000C94630001
:100010000C9463000C9463000C9463000C946300D4
:100020000C9463000C9463000C9463000C946300C4
:100030000C9463000C9463000C9463000C946300B4
:100040000C9447010C9463000C947C010C94A40163
:100050000C9463000C9463000C9463000C94630094
:100060000C9463000C9463000C9463000C94630084
:100070000C9463000C9463000C9463000C94630074
:100080000C9463000C9463000C94630011241FBE55
:10009000CFEFD0E1DEBFCDBF11E0A0E0B1E0ECEAF0
:1000A000FDE000E00BBF02C007900D92A433B10742
:1000B000D9F712E0A4E3B1E001C01D92A634B10764
:1000C000E1F70C9409010C9400002FB1E0912B0191
:1000D000F0912C0180813327992787FD909528176F
:1000E000390729F081E0809334016F9808953196A3
:1000F000F0932C01E0932B0131978181882321F427
:1001000082E0809334016F980895CF93DF93CDB749
:10011000DEB721970FB6F894DEBF0FBECDBF80E4E7
:1001200087BB8DB98EB189838FB189838FEF81BBF6
:1001300021960FB6F894DEBF0FBECDBFDF91CF91F1
:100140000895CF93DF93CDB7DEB721970FB6F8941C
:10015000DEBF0FBECDBF80E487BB80EC8DB98EB112
:1001600089838FB189838FEF81BB21960FB6F89475
:10017000DEBF0FBECDBFDF91CF91089580913401D6
:10018000813031F0823039F08823D1F712BAFECFB6
:1001900080EF82BBFDCF8AEA82BBFDCF0F931F9316
:1001A000CF93DF9300E011E0C2E0D1E01DC0779B68
:1001B000FECF2FB180813327992787FD909528178F
:1001C000390719F081E0809334013196F0932C01C6
:1001D000E0932B011F930F93DF93CF930E9476023E
:1001E0000F900F900F900F90E0912B01F0912C0148
:1001F0008081882321F0809134018130C1F6809183
:100200003401813019F480EF82BB02C08AEA82BBDC
:10021000FFCFCFEFD0E1DEBFCDBF0E941D016FED5C
:1002200071E081E092E00E9426020E9485000E9417
:10023000CE0080E090E00C94D5069FEF9BBB1ABAED
:1002400098BB80E187BB95BB14BA92BB11BA93B936
:1002500012B810926200109261009093650088E1DC
:100260008093640010BE1092900089E189B91BB898
:1002700088E98AB98EE08093950087EC86B986B1CB
:10028000877C11F03699FECF0E94690108951F9274
:100290000F920FB60F9211248F939F938091370185
:1002A0008F5F809337018A3058F010923701809128
:1002B0003501909136010196909336018093350176
:1002C00086E082BF9F918F910F900FBE0F901F907D
:1002D000189584E083BF12BE81E087BF78940895AB
:1002E0002091350130913601809135019091360190
:1002F00082179307C9F308951F920F920FB60F92BA
:1003000011242F938F939F93EF93FF932CB18091A0
:10031000BB019091BA01891B803861F08091BB01CB
:10032000E82FFF27EF77F070E654FE4F22838F5FB0
:100330008093BB01FF91EF919F918F912F910F902F
:100340000FBE0F901F9018951F920F920FB60F922D
:1003500011248F939F93EF93FF9390913901809194
:100360003801981711F455980DC080913801E82F85
:10037000FF27EF77F070E85CFE4F92819CB98F5FAA
:1003800080933801FF91EF919F918F910F900FBE55
:100390000F901F9018959091BB018091BA0198170A
:1003A000D1F39091BA01E92FFF27EF77F070E6546F
:1003B000FE4F82819F5F9093BA01992708950E9412
:1003C000CB0108951F93182F8A3019F48DE00E94F5
:1003D000E2018091390190913801891B8038C9F37D
:1003E00080913901E82FFF27EF77F070E85CFE4F2E
:1003F00012838F5F80933901559A80E090E01F91BE
:1004000008950E94E2010895CF93DF93EC0108C0A4
:100410008A3019F48DE00E94E20189910E94E20184
:1004200088818823A9F7DF91CF9108951F93CF93F7
:10043000DF93162FEC0104C089910E94E201115054
:100440001123D1F7DF91CF911F910895EF92FF9281
:100450000F931F93CF93DF938C017B01892B11F4B2
:10046000672BD1F16EE070E081E090E00E944B05D7
:10047000FC01009789F1DC0180E88383E114F10439
:1004800071F0F386E28681E8838380913C0290914B
:100490003D02892B21F4F0933D02E0933C020115CB
:1004A0001105E1F011870087838182608383809149
:1004B0003E0290913F02892B89F4F0933F02E09332
:1004C0003E028091400290914102892B39F4F093D1
:1004D0004102E093400202C0A0E0B0E0CD01DF9114
:1004E000CF911F910F91FF90EF900895CF93DF93DD
:1004F000CDB7DEB722970FB6F894DEBF0FBECDBFE3
:10050000FE01379661917191FA83E983AF01809181
:100510003E0290913F020E94960222960FB6F894F6
:10052000DEBF0FBECDBFDF91CF9108952F923F92D6
:100530004F925F926F927F928F929F92AF92BF92F3
:10054000CF92DF92EF92FF920F931F93CF93DF939F
:10055000CDB7DEB762970FB6F894DEBF0FBECDBF42
:100560008824992454012C017A8B698B3A01FC016F
:1005700017821682838181FD03C08FEF9FEF72C2C5
:10058000CC24DD245EC2C0FE45C2832D80538A3058
:10059000E0F4F0E33F1641F42D85222329F4C3FC57
:1005A00003C080E091E078C08AE0ED85E802C001F8
:1005B0001124380EF32DF053FD87F7FF02C02FE70B
:1005C0002D87C3FC39C22D8437C2C6018870907054
:1005D000C3FE05C03D85332311F4E1E0ED87F7E666
:1005E000F3156CF125E632160CF067C033E53316CF
:1005F00009F487C03315BCF08BE2381609F441C00A
:1006000083154CF090E2391609F43FC0E3E23E1640
:1006100009F0F6C144C0FDE23F16E1F12EE23216C8
:1006200009F0EEC141C033E6331609F44CC033156E
:100630000CF480C088E5381609F0E2C11FC0E0E77D
:100640003E1609F4A1C0E3155CF0FCE63F1691F1FB
:100650002FE6321689F039E6331609F0D1C16AC0A7
:10066000E5E73E1609F498C0F8E73F1639F023E7AE
:10067000321609F0C5C12FC038E08DC080E1888BEB
:100680008BC0E0E1F0E0CE2ADF2A20E230E0C22A8F
:10069000D32AD2C180E890E0C82AD92ACDC1E0E4AB
:1006A000F0E0CE2ADF2AC8C128E030E0C22AD32AEF
:1006B0001D86C2C184E090E0EFCF5FE3852E2A94CF
:1006C00043E6342E33C1F30180802A9422E030E0E7
:1006D000620E731E2BC1F30180809180892B49F03B
:1006E000FD856F2F772767FD7095C4010E947B06FB
:1006F00019C0F40101900020E9F73197E819E88B5F
:1007000012C0F30180809180892B49F0FD856F2F05
:10071000772767FD7095C4010E94690603C0C40174
:100720000E946006888B22E030E0620E731E3889DA
:10073000231AFCC0C2FE08C0F30180819181A2810E
:10074000B38124E030E009C0F30180819181AA27C0
:1007500097FDA095BA2F22E030E0620E731E4C0187
:100760005D01B7FF0CC082E090E0C82AD92AB0949E
:10077000A09490948094811C911CA11CB11CEFEB5F
:10078000FFEFCE22DF2221C020E430E0C22AD32AAC
:1007900038E7332E30E1388BC2FE08C0F301808188
:1007A0009181A281B38124E030E007C0F301808110
:1007B0009181AA27BB2722E030E0620E731E4C0114
:1007C0005D018FEC9FEFC822D92285017401FE01E3
:1007D0003196FF87EE87F8898F2E9924AA24BB24AF
:1007E000C801B701A50194010E94B3066A301CF04C
:1007F000630D615201C0605DEE85FF856193FF87E7
:10080000EE87C801B701A50194010E94B3067901E2
:100810008A01211531054105510511F788249924D4
:100820005401CE0101968E84881AC601827390709D
:10083000892B09F02A94C6FE07C0F889F03111F41B
:1008400082E001C081E0281A28E0E22EF12CEC20A1
:10085000FD20C3FE16C08D85282F332727FD309538
:10086000882D9927821793073CF0E7EFFFEFCE2200
:10087000DF22EE24FF2405C0FD85F819FD872F1A1D
:1008800001C02818C60180789170892B69F4822DE7
:1008900006C0B20180E290E00E948606812F182FE8
:1008A00011501816B4F3212EC1FE04C0B2018DE21E
:1008B00090E00BC0C4FE04C0B2018BE290E005C022
:1008C000C5FE05C0B20180E290E00E948606C6FE29
:1008D0000FC0B20180E390E00E9486062889203193
:1008E00039F4B201832D992787FD90950E948606E1
:1008F000D0FE0DC0822D06C0B20180E390E00E94C0
:100900008606812F182F11501816B4F3212EEF28C8
:1009100069F02D8506C0B20180E390E00E94860652
:10092000212F122F11501216B4F31D8790E8E92ED3
:10093000F12CEC20FD20C7FC0DC0822D06C0B201B9
:1009400080E290E00E948606812F182F1150181621
:10095000B4F3212E33E6331641F4B201882D9927E2
:1009600087FD90950E9486063BC083E7381689F480
:10097000840109C0F80181918F01B201992787FD97
:1009800090950E948606F889F150F88BFF3F91F709
:1009900015C023E5321619F00E851F851AC0840193
:1009A00008C0F8018491B20199270E9486060F5F62
:1009B0001F4FF889F150F88BFF3F99F7480110C09D
:1009C000F80182918F01B201992787FD90950E94CD
:1009D0008606CE0101960817190791F71F870E8723
:1009E000EF28A9F0822D06C0B20180E290E00E94BB
:1009F0008606812F182F11501816B4F3212E07C028
:100A0000B201832D992787FD90950E948606CC24FC
:100A1000DD2412C0F5E23F1641F42AE0288B22249F
:100A20001D8681E0C82ED12C07C0B201832D9927E5
:100A300087FD90950E94860689899A8901969A8BEE
:100A4000898BF201838183FF04C0E989FA8934909C
:100A500003C0E989FA893080332009F094CDF2018E
:100A60008681978162960FB6F894DEBF0FBECDBF28
:100A7000DF91CF911F910F91FF90EF90DF90CF907A
:100A8000BF90AF909F908F907F906F905F904F90AE
:100A90003F902F9008950F931F93CF93DF93869FDE
:100AA0008001879F100D969F100D1124C8010E9490
:100AB0006705EC01009729F0A80160E070E00E9452
:100AC0007406CE01DF91CF911F910F910895CF93BE
:100AD000DF93AC01029710F442E050E0A091440291
:100AE000B0914502FD01C0E0D0E020E030E020C040
:100AF000808191818417950769F482819381209781
:100B000019F09B838A8304C090934502809344022A
:100B1000CF0132C04817590738F42115310519F0B3
:100B20008217930708F49C01EF010280F381E02D06
:100B30003097F1F62115310589F1C901841B950B18
:100B4000049708F4A901E0E0F0E026C08D919C91A3
:100B5000119782179307E9F44817590779F4ED01C3
:100B60008A819B81309719F09383828304C090938C
:100B7000450280934402CD01029649C0841B950B27
:100B8000FD01E80FF91F4193519302978D939C93B8
:100B90003AC0FD01A281B3811097C1F68091420253
:100BA00090914302892B41F480912F019091300163
:100BB000909343028093420220913101309132019F
:100BC0002115310541F42DB73EB780912D0190914B
:100BD0002E01281B390BE0914202F09143022E1B9B
:100BE0003F0B2417350788F0CA01029628173907EA
:100BF00060F0CF01840F951F02969093430280937B
:100C0000420241935193CF0102C080E090E0DF9116
:100C1000CF910895CF93DF93009709F44EC0EC0174
:100C200022971B821A82A0914402B091450210972C
:100C300011F140E050E001C0DC01AC17BD0700F14C
:100C4000BB83AA83FE0121913191E20FF31FEA17C2
:100C5000FB0771F42E5F3F4F8D919C911197820F8E
:100C6000931F99838883FD01828193819B838A836B
:100C70004115510559F4D0934502C09344021DC05B
:100C8000FD0182819381AD010097B1F6FA01D38312
:100C9000C28321913191E20FF31FEC17FD0769F434
:100CA0002E5F3F4F88819981820F931FFA019183B4
:100CB00080838A819B8193838283DF91CF91089582
:100CC000FC0105900020E9F7809590958E0F9F1FFD
:100CD0000895FC010590615070400110D8F780958F
:100CE00090958E0F9F1F0895DC0101C06D934150B8
:100CF0005040E0F70895FC016150704001900110F0
:100D0000D8F7809590958E0F9F1F08950F931F938E
:100D1000CF93DF938C01EB018B81992781FF1BC05F
:100D200082FF0DC02E813F818C819D81281739075C
:100D300064F4E881F9810193F983E88306C0E885CA
:100D4000F985802F0995892B31F48E819F81019639
:100D50009F838E8302C00FEF1FEFC801DF91CF91F9
:100D60001F910F910895A1E21A2EAA1BBB1BFD0132
:100D70000DC0AA1FBB1FEE1FFF1FA217B307E4077A
:100D8000F50720F0A21BB30BE40BF50B661F771FD2
:100D9000881F991F1A9469F76095709580959095B2
:0C0DA0009B01AC01BD01CF010895FFCF05
:100DAC006100737069203D202573200A0041565262
:100DBC0020636F6D6D756E69636174696E67207603
:100DCC0069612074686520535049000D012000466C
:040DDC000200000011
:00000001FF
