:100000000C9446000C9463000C9463000C94630001
:100010000C9463000C9463000C9463000C946300D4
:100020000C9463000C9463000C9463000C946300C4
:100030000C9463000C9463000C9463000C946300B4
:100040000C9430010C9463000C9465010C948D01A8
:100050000C9463000C9463000C9463000C94630094
:100060000C9463000C9463000C9463000C94630084
:100070000C9463000C9463000C9463000C94630074
:100080000C9463000C9463000C94630011241FBE55
:10009000CFEFD0E1DEBFCDBF11E0A0E0B1E0E0EDF9
:1000A000FDE000E00BBF02C007900D92A231B10746
:1000B000D9F712E0A2E1B1E001C01D92A532B1076B
:1000C000E1F70C9465000C940000CFEFD0E1DEBFA7
:1000D000CDBF0E940F020E94520180B7877F80BF70
:1000E00080916400806180936400BC9A8091640078
:1000F0008860809364000E94BC00809165008061EC
:100100008093650068EC71E08AEE91E00E9439020C
:10011000C0E0D1E08091650080618093650080E05F
:100120000E94C30099279F938F93DF93CF930E94E0
:10013000B60260911D0270911E0284E790E00E9459
:10014000890260911D0270911E028AE090E00E9477
:100150008902809165008F7E8093650082E00E9415
:10016000EA0010E00F900F900F900F900E9459013D
:100170001F5F1436D9F7CECFBB9AC29A80E48DB9EF
:100180008EB18FB108958FB9779BFECF8FB199272C
:100190000895FC0106C08FEF8FB9779BFECF8FB11A
:1001A0008193615070408FEF6F3F7807A1F70895FA
:1001B000009731F0A0EABFE01197F1F70197D1F76E
:1001C0000895009731F0A4E0B0E01197F1F701979E
:1001D000D1F70895282F09C084E690E0A0EABFE097
:1001E0001197F1F70197D1F721502223A9F708952C
:1001F000282F09C081E090E0A0EABFE01197F1F755
:100200000197D1F721502223A9F70895282F09C07B
:100210008AE090E0A0EABFE01197F1F70197D1F7EB
:1002200021502223A9F70895282F09C08AE090E0E1
:10023000A4E0B0E01197F1F70197D1F72150222304
:10024000A9F70895282F09C084E690E0A4E0B0E063
:100250001197F1F70197D1F721502223A9F70895BB
:100260001F920F920FB60F9211248F939F9380913C
:1002700014018F5F809314018A3058F0109214019A
:100280008091120190911301019690931301809334
:10029000120186E082BF9F918F910F900FBE0F9049
:1002A0001F90189584E083BF12BE81E087BF7894C9
:1002B00008952091120130911301809112019091C3
:1002C000130182179307C9F308951F920F920FB677
:1002D0000F9211242F938F939F93EF93FF932CB141
:1002E00080919A0190919901891B803861F08091E9
:1002F0009A01E82FFF27EF77F070E756FE4F228331
:100300008F5F80939A01FF91EF919F918F912F9131
:100310000F900FBE0F901F9018951F920F920FB65F
:100320000F9211248F939F93EF93FF939091180155
:1003300080911701981711F455980DC080911701FD
:10034000E82FFF27EF77F070E95EFE4F92819CB9AE
:100350008F5F80931701FF91EF919F918F910F9085
:100360000FBE0F901F90189590919A01809199015E
:100370009817D1F390919901E92FFF27EF77F0704B
:10038000E756FE4F82819F5F9093990199270895C8
:100390000E94B40108951F93182F8A3019F48DE03C
:1003A0000E94CB018091180190911701891B803820
:1003B000C9F380911801E82FFF27EF77F070E95E0D
:1003C000FE4F12838F5F80931801559A80E090E072
:1003D0001F9108950E94CB010895CF93DF93EC0104
:1003E00008C08A3019F48DE00E94CB0189910E94E7
:1003F000CB0188818823A9F7DF91CF9108951F93BE
:10040000CF93DF93162FEC0104C089910E94CB019A
:1004100011501123D1F7DF91CF911F9108959FEFD4
:100420009BBB1ABA98BB80E187BB95BB14BA92BB41
:1004300011BA93B912B810926200109261009093B1
:10044000650088E18093640010BE1092900089E1FD
:1004500089B91BB888E98AB98EE08093950087EC4A
:1004600086B986B1877C11F03699FECF0E94520181
:100470000895EF92FF920F931F93CF93DF938C0118
:100480007B01892B11F4672BD1F16EE070E081E0E4
:1004900090E00E948B05FC01009789F1DC0180E867
:1004A0008383E114F10471F0F386E28681E88383AB
:1004B00080911B0290911C02892B21F4F0931C0265
:1004C000E0931B0201151105E1F01187008783817C
:1004D0008260838380911D0290911E02892B89F492
:1004E000F0931E02E0931D0280911F029091200262
:1004F000892B39F4F0932002E0931F0202C0A0E0A0
:10050000B0E0CD01DF91CF911F910F91FF90EF905F
:1005100008950F931F93CF93DF938C01EB018B8191
:10052000992781FF1BC082FF0DC02E813F818C81E6
:100530009D812817390764F4E881F9810193F983D3
:10054000E88306C0E885F985802F0995892B31F469
:100550008E819F8101969F838E8302C00FEF1FEFD4
:10056000C801DF91CF911F910F910895CF93DF9331
:10057000CDB7DEB722970FB6F894DEBF0FBECDBF62
:10058000FE01379661917191FA83E983AF01809101
:100590001D0290911E020E94D60222960FB6F89478
:1005A000DEBF0FBECDBFDF91CF9108952F923F9256
:1005B0004F925F926F927F928F929F92AF92BF9273
:1005C000CF92DF92EF92FF920F931F93CF93DF931F
:1005D000CDB7DEB762970FB6F894DEBF0FBECDBFC2
:1005E0008824992454012C017A8B698B3A01FC01EF
:1005F00017821682838181FD03C08FEF9FEF72C245
:10060000CC24DD245EC2C0FE45C2832D80538A30D7
:10061000E0F4F0E33F1641F42D85222329F4C3FCD6
:1006200003C080E091E078C08AE0ED85E802C00177
:100630001124380EF32DF053FD87F7FF02C02FE78A
:100640002D87C3FC39C22D8437C2C60188709070D3
:10065000C3FE05C03D85332311F4E1E0ED87F7E6E5
:10066000F3156CF125E632160CF067C033E533164E
:1006700009F487C03315BCF08BE2381609F441C089
:1006800083154CF090E2391609F43FC0E3E23E16C0
:1006900009F0F6C144C0FDE23F16E1F12EE2321648
:1006A00009F0EEC141C033E6331609F44CC03315EE
:1006B0000CF480C088E5381609F0E2C11FC0E0E7FD
:1006C0003E1609F4A1C0E3155CF0FCE63F1691F17B
:1006D0002FE6321689F039E6331609F0D1C16AC027
:1006E000E5E73E1609F498C0F8E73F1639F023E72E
:1006F000321609F0C5C12FC038E08DC080E1888B6B
:100700008BC0E0E1F0E0CE2ADF2A20E230E0C22A0E
:10071000D32AD2C180E890E0C82AD92ACDC1E0E42A
:10072000F0E0CE2ADF2AC8C128E030E0C22AD32A6E
:100730001D86C2C184E090E0EFCF5FE3852E2A944E
:1007400043E6342E33C1F30180802A9422E030E066
:10075000620E731E2BC1F30180809180892B49F0BA
:10076000FD856F2F772767FD7095C4010E94BB063A
:1007700019C0F40101900020E9F73197E819E88BDE
:1007800012C0F30180809180892B49F0FD856F2F85
:10079000772767FD7095C4010E94A90603C0C401B4
:1007A0000E94A006888B22E030E0620E731E38891A
:1007B000231AFCC0C2FE08C0F30180819181A2818E
:1007C000B38124E030E009C0F30180819181AA2740
:1007D00097FDA095BA2F22E030E0620E731E4C0107
:1007E0005D01B7FF0CC082E090E0C82AD92AB0941E
:1007F000A09490948094811C911CA11CB11CEFEBDF
:10080000FFEFCE22DF2221C020E430E0C22AD32A2B
:1008100038E7332E30E1388BC2FE08C0F301808107
:100820009181A281B38124E030E007C0F30180818F
:100830009181AA27BB2722E030E0620E731E4C0193
:100840005D018FEC9FEFC822D92285017401FE0162
:100850003196FF87EE87F8898F2E9924AA24BB242E
:10086000C801B701A50194010E94C6066A301CF0B8
:10087000630D615201C0605DEE85FF856193FF8766
:10088000EE87C801B701A50194010E94C60679014F
:100890008A01211531054105510511F78824992454
:1008A0005401CE0101968E84881AC601827390701D
:1008B000892B09F02A94C6FE07C0F889F03111F49B
:1008C00082E001C081E0281A28E0E22EF12CEC2021
:1008D000FD20C3FE16C08D85282F332727FD3095B8
:1008E000882D9927821793073CF0E7EFFFEFCE2280
:1008F000DF22EE24FF2405C0FD85F819FD872F1A9D
:1009000001C02818C60180789170892B69F4822D66
:1009100006C0B20180E290E00E948902812F182F68
:1009200011501816B4F3212EC1FE04C0B2018DE29D
:1009300090E00BC0C4FE04C0B2018BE290E005C0A1
:10094000C5FE05C0B20180E290E00E948902C6FEA9
:100950000FC0B20180E390E00E9489022889203113
:1009600039F4B201832D992787FD90950E94890261
:10097000D0FE0DC0822D06C0B20180E390E00E943F
:100980008902812F182F11501816B4F3212EEF2849
:1009900069F02D8506C0B20180E390E00E948902D3
:1009A000212F122F11501216B4F31D8790E8E92E53
:1009B000F12CEC20FD20C7FC0DC0822D06C0B20139
:1009C00080E290E00E948902812F182F11501816A2
:1009D000B4F3212E33E6331641F4B201882D992762
:1009E00087FD90950E9489023BC083E7381689F401
:1009F000840109C0F80181918F01B201992787FD17
:100A000090950E948902F889F150F88BFF3F91F789
:100A100015C023E5321619F00E851F851AC0840112
:100A200008C0F8018491B20199270E9489020F5FE2
:100A30001F4FF889F150F88BFF3F99F7480110C01C
:100A4000F80182918F01B201992787FD90950E944C
:100A50008902CE0101960817190791F71F870E87A3
:100A6000EF28A9F0822D06C0B20180E290E00E943A
:100A70008902812F182F11501816B4F3212E07C0A8
:100A8000B201832D992787FD90950E948902CC247D
:100A9000DD2412C0F5E23F1641F42AE0288B22241F
:100AA0001D8681E0C82ED12C07C0B201832D992765
:100AB00087FD90950E94890289899A8901969A8B6F
:100AC000898BF201838183FF04C0E989FA8934901C
:100AD00003C0E989FA893080332009F094CDF2010E
:100AE0008681978162960FB6F894DEBF0FBECDBFA8
:100AF000DF91CF911F910F91FF90EF90DF90CF90FA
:100B0000BF90AF909F908F907F906F905F904F902D
:100B10003F902F9008950F931F93CF93DF93869F5D
:100B20008001879F100D969F100D1124C8010E940F
:100B3000A705EC01009729F0A80160E070E00E9491
:100B4000B406CE01DF91CF911F910F910895CF93FD
:100B5000DF93AC01029710F442E050E0A091230231
:100B6000B0912402FD01C0E0D0E020E030E020C0E0
:100B7000808191818417950769F482819381209700
:100B800019F09B838A8304C09093240280932302EC
:100B9000CF0132C04817590738F42115310519F033
:100BA0008217930708F49C01EF010280F381E02D86
:100BB0003097F1F62115310589F1C901841B950B98
:100BC000049708F4A901E0E0F0E026C08D919C9123
:100BD000119782179307E9F44817590779F4ED0143
:100BE0008A819B81309719F09383828304C090930C
:100BF000240280932302CD01029649C0841B950BE9
:100C0000FD01E80FF91F4193519302978D939C9337
:100C10003AC0FD01A281B3811097C1F680912102F3
:100C200090912202892B41F480910D0190910E0147
:100C3000909322028093210220910F0130911001A4
:100C40002115310541F42DB73EB780910B019091EC
:100C50000C01281B390BE0912102F09122022E1B7E
:100C60003F0B2417350788F0CA0102962817390769
:100C700060F0CF01840F951F02969093220280931B
:100C8000210241935193CF0102C080E090E0DF91B7
:100C9000CF910895CF93DF93009709F44EC0EC01F4
:100CA00022971B821A82A0912302B09124021097EE
:100CB00011F140E050E001C0DC01AC17BD0700F1CC
:100CC000BB83AA83FE0121913191E20FF31FEA1742
:100CD000FB0771F42E5F3F4F8D919C911197820F0E
:100CE000931F99838883FD01828193819B838A83EB
:100CF0004115510559F4D0932402C09323021DC01D
:100D0000FD0182819381AD010097B1F6FA01D38391
:100D1000C28321913191E20FF31FEC17FD0769F4B3
:100D20002E5F3F4F88819981820F931FFA01918333
:100D300080838A819B8193838283DF91CF91089501
:100D4000FC0105900020E9F7809590958E0F9F1F7C
:100D50000895FC010590615070400110D8F780950E
:100D600090958E0F9F1F0895DC0101C06D93415037
:100D70005040E0F70895FC0161507040019001106F
:100D8000D8F7809590958E0F9F1F0895A1E21A2E97
:100D9000AA1BBB1BFD010DC0AA1FBB1FEE1FFF1F1F
:100DA000A217B307E407F50720F0A21BB30BE40B6F
:100DB000F50B661F771F881F991F1A9469F76095B6
:100DC0007095809590959B01AC01BD01CF01089570
:100DD000737069203D202569200A0020002502004B
:020DE000000011
:00000001FF
